:03000000020100FA
:100100001201BB1202111201C974D031D9746B31C2
:10011000D9740031D931D01201BB1201C974D03168
:10012000D9741B31D9740031D931D01201BB1201FD
:10013000C974D031D9744331D91201C974D131D9BC
:100140005101F831F831D07480120237744712022D
:100150004874791202487472120248746F1202488D
:100160007458120248743A120248E81202591201F5
:10017000BB1201C974D031D9743B31D91201C97491
:10018000D131D95101F831F831D074C0120237742D
:100190004112024874631202487463120248746583
:1001A000120248746C1202487458120248743A12CF
:1001B0000248E812025912027D212BD292D29322D8
:1001C000C293D292D293C29222D293C292C293226B
:1001D000C293C292D293D292227F08C29333929258
:1001E000D293DFF7C293D292D293A292C29322C249
:1001F00092D293C293D29222D292D293C293D293AA
:10020000227F08C293D293A29233DFF7C293D29295
:100210002274381202267406120226740C12022668
:10022000740112022622C290D291F5A012027DC260
:1002300091D29112027D22C290D291F5A012027D3C
:10024000C291D29112027D22D290D291F5A01202D7
:100250007DC291D29112027D2275F06484F9E5F09D
:1002600075F00A84FAABF0E92430F9EA2430FAEBAD
:100270002430FBE95148EA5148EB5148227F017E86
:10028000377D371D00BD00FB1EBE00F51FBF00EF10
:01029000224B
:00000001FF
